:020000040800F2
:10000000680600200D020008490200084B020008A3
:100010004D0200084F0200085102000800000000D5
:100020000000000000000000000000005302000873
:100030005502000800000000570200089103000864
:100040005B0200085B0200085B0200085B0200081C
:100050005B0200085B0200085B0200085B0200080C
:100060005B0200085B0200085B0200085B020008FC
:100070005B0200085B0200085B0200085B020008EC
:100080005B0200085B0200085B0200085B020008DC
:100090005B0200085B0200085B0200085B020008CC
:1000A0005B0200085B0200085B0200085B020008BC
:1000B0005B0200085B0200085B0200085B020008AC
:1000C0005B0200085B0200085B0200085B0200089C
:1000D0005B0200085B0200085B0200085B0200088C
:1000E0005B0200085B0200085B0200085B0200087C
:1000F0005B0200085B0200085B0200085B0200086C
:100100005B0200085B0200085B0200085B0200085B
:100110005B0200085B0200085B0200085B0200084B
:100120005B0200085B0200085B0200085B0200083B
:100130005B0200085B0200085B0200085B0200082B
:100140005B0200085B0200085B0200085B0200081B
:100150005B0200085B0200085B0200085B0200080B
:100160005B0200085B0200085B0200085B020008FB
:100170005B0200085B0200085B0200080000000050
:100180005B0200085B02000800F002F800F02EF8A5
:100190000AA090E8000C82448344AAF10107DA45E2
:1001A00001D100F023F8AFF2090EBAE80F0013F006
:1001B000010F18BFFB1A43F001031847900300001A
:1001C000A00300000023002400250026103A28BFC9
:1001D00078C1FBD8520728BF30C148BF0B607047B9
:1001E0001FB500F0A5F91FBD10B510BD00F053F804
:1001F0001146FFF7F5FF00F0F5F800F071F803B4D1
:10020000FFF7F2FF03BC00F079F800001648174929
:10021000174B99423CBF50F8042B41F8042BF8D3FC
:1002200014494FF000028B4238BF43F8042BFAD335
:10023000DFF84400016841F470010160BFF34F8FA3
:10024000BFF36F8F0D480047FEE7FEE7FEE7FEE7CE
:10025000FEE7FEE7FEE7FEE7FEE7FEE7084809499E
:10026000094A0A4B704700005C05000800000020A6
:10027000000000206806002088ED00E089010008E9
:100280006800002068060020680200206802002044
:10029000704770477047754600F02CF8AE46050071
:1002A0006946534620F00700854618B020B5FFF791
:1002B000D5FFBDE820404FF000064FF000074FF09B
:1002C00000084FF0000BAC46ACE8C009ACE8C00930
:1002D000ACE8C009ACE8C00921F007018D467047C1
:1002E00010B50446AFF300802046BDE81040FFF78C
:1002F00086BF000000487047000000200149182018
:10030000ABBEFEE7260002007047000082B00190FD
:1003100040F26000C2F2000000680090FFE740F287
:100320006000C2F2000000680099401A01998842FA
:1003300001D2FFE7F3E702B07047000080B582B05A
:10034000009000980138B0F1807F03D3FFE70120CF
:10035000019019E0009801384EF21401CEF200012C
:1003600008604FF0FF300F2100F01AF84EF218012C
:10037000CEF20001002008604EF21002CEF2000220
:10038000072111600190FFE7019802B080BD0000D5
:1003900040F26001C2F20001086801300860704755
:1003A00082B08DF8070000919DF9070000280AD45B
:1003B000FFE7009800019DF907104EF20042CEF2CF
:1003C000000288540BE0009800019DF8071001F02E
:1003D0000F014EF61452CEF200028854FFE702B02D
:1003E0007047000080B586B00020059041F2000102
:1003F000C4F20201086840F480700860FFE741F22F
:100400000000C4F2020000684005002801D4FFE7A4
:10041000F5E741F20801C4F20201086820F0030088
:100420000860086840F001000860FFE741F208003A
:10043000C4F20200006810F00C0F01D1FFE7F5E7ED
:1004400041F24C01C4F20201086840F00200086069
:1004500040F20042C4F60002106820F03000106044
:10046000106840F01000106040F20442C4F6000230
:10047000106820F00400106040F20C42C4F6000244
:10048000106820F03000106040F21442C4F6000200
:10049000106840F004001060086840F01000086028
:1004A00041F20001C4F60001086820F44030086001
:1004B000086840F48030086041F20401C4F600018D
:1004C000086820F48070086041F20C01C4F6000155
:1004D000086820F4403008604FF47A50FFF72EFF90
:1004E000FFE70020049040F21441C4F6000101919E
:1004F000086840F00400086041F21401C4F60001ED
:100500000291086840F4807008604FF4FA7003901C
:10051000FFF7FCFE019B029A0398196821F0040181
:100520001960116821F480711160FFF7EFFED8E7C0
:10053000F1EE100A4FF6FF71C0F2C03120EA01005F
:1005400040F04070E1EE100A704700005C050008C2
:0C0550000000002068060000C401000844
:040000050800018965
:00000001FF
