:020000040800F2
:10000000680600200D020008490200084B020008A3
:100010004D0200084F0200085102000800000000D5
:100020000000000000000000000000005302000873
:100030005502000800000000570200086103000894
:100040005B0200085B0200085B0200085B0200081C
:100050005B0200085B0200085B0200085B0200080C
:100060005B0200085B0200085B0200085B020008FC
:100070005B0200085B0200085B0200085B020008EC
:100080005B0200085B0200085B0200085B020008DC
:100090005B0200085B0200085B0200085B020008CC
:1000A0005B0200085B0200085B0200085B020008BC
:1000B0005B0200085B0200085B0200085B020008AC
:1000C0005B0200085B0200085B0200085B0200089C
:1000D0005B0200085B0200085B0200085B0200088C
:1000E0005B0200085B0200085B0200085B0200087C
:1000F0005B0200085B0200085B0200085B0200086C
:100100005B0200085B0200085B0200085B0200085B
:100110005B0200085B0200085B0200085B0200084B
:100120005B0200085B0200085B0200085B0200083B
:100130005B0200085B0200085B0200085B0200082B
:100140005B0200085B0200085B0200085B0200081B
:100150005B0200085B0200085B0200085B0200080B
:100160005B0200085B0200085B0200085B020008FB
:100170005B0200085B0200085B0200080000000050
:100180005B0200085B02000800F002F800F02EF8A5
:100190000AA090E8000C82448344AAF10107DA45E2
:1001A00001D100F023F8AFF2090EBAE80F0013F006
:1001B000010F18BFFB1A43F001031847C0050000E8
:1001C000D00500000023002400250026103A28BF97
:1001D00078C1FBD8520728BF30C148BF0B607047B9
:1001E0001FB500F0BDFA1FBD10B510BD00F053F8EB
:1001F0001146FFF7F5FF00F097F900F071F803B42E
:10020000FFF7F2FF03BC00F079F800001648174929
:10021000174B99423CBF50F8042B41F8042BF8D3FC
:1002200014494FF000028B4238BF43F8042BFAD335
:10023000DFF84400016841F470010160BFF34F8FA3
:10024000BFF36F8F0D480047FEE7FEE7FEE7FEE7CE
:10025000FEE7FEE7FEE7FEE7FEE7FEE7084809499E
:10026000094A0A4B704700008C0700080000002074
:10027000000000206806002088ED00E089010008E9
:100280006800002068060020680200206802002044
:10029000704770477047754600F02CF8AE46050071
:1002A0006946534620F00700854618B020B5FFF791
:1002B000D5FFBDE820404FF000064FF000074FF09B
:1002C00000084FF0000BAC46ACE8C009ACE8C00930
:1002D000ACE8C009ACE8C00921F007018D467047C1
:1002E00010B50446AFF300802046BDE81040FFF78C
:1002F00086BF000000487047000000200149182018
:10030000ABBEFEE7260002007047000080B582B059
:10031000009000980138B0F1807F03D3FFE70120FF
:10032000019019E0009801384EF21401CEF200015C
:1003300008604FF0FF300F2100F01AF84EF218015C
:10034000CEF20001002008604EF21002CEF2000250
:10035000072111600190FFE7019802B080BD000005
:1003600040F26001C2F20001086801300860704785
:1003700082B08DF8070000919DF9070000280AD48B
:10038000FFE7009800019DF907104EF20042CEF2FF
:10039000000288540BE0009800019DF8071001F05E
:1003A0000F014EF61452CEF200028854FFE702B05D
:1003B0007047000081B0009041F21401C4F60001C2
:1003C000086820F47C4008600098800140F2FF3209
:1003D00020EA02020868104308601421C4F60001F4
:1003E000086820F00F000860009800F00F0208680D
:1003F0001043086001B0704782B0019040F2600085
:10040000C2F2000000680090FFE740F26000C2F214
:10041000000000680099401A0199884201D2FFE764
:10042000F3E702B07047000081B041F24C01C4F222
:100430000201086840F00100086000200090009070
:10044000FFE7009803282BDCFFE70098410003201A
:1004500000FA01F24FF09043196891431960009936
:100460004A00012101FA02FC1A6842EA0C021A60F1
:10047000009A01FA02F30422C4F6000211689943BB
:1004800011600099490000FA01F20C21C4F6000144
:10049000086890430860FFE7009801300090D0E7BB
:1004A00001B0704781B041F24C01C4F2020108680A
:1004B00040F0100008600A2000900090FFE70098CC
:1004C0000F282FDCFFE700984100032000FA01F21B
:1004D00041F20003C4F600031968914319600099C2
:1004E0004A00012101FA02FC1A6842EA0C021A6071
:1004F000009A01FA02F341F20402C4F60002116804
:10050000994311600099490000FA01F241F20C018F
:10051000C4F60001086890430860FFE700980130C6
:100520000090CCE701B0704780B582B00020019008
:1005300041F20001C4F20201086840F480700860D2
:10054000FFE741F20000C4F2020000684005002805
:1005500001D4FFE7F5E741F20801C4F2020108689F
:1005600020F003000860086840F001000860FFE721
:1005700041F20800C4F20200006810F00C0F01D133
:10058000FFE7F5E7FFF78EFFFFF74EFF4FF47A50D6
:10059000FFF7BCFEFFE700F001F8FCE780B58AB08A
:1005A0004FF4007006900020059004900590FFE73E
:1005B00005980B285DDCFFE7059820B9FFE7069852
:1005C000FFF7F8FEFFE70520FFF716FF06A80390E8
:1005D00000F0BEF80398043000F0BAF80398083031
:1005E00000F0B6F803980C3000F0B2F80598B0B9F6
:1005F000FFE7069840000790079840EA50000790F0
:10060000079840000890089840EA50000890089821
:1006100040000990099840EA50000990FFE7002047
:100620000490FFE704981D281EDCFFE70698FFF7FB
:10063000C1FE01200290FFF7DFFE0798FFF7BAFE28
:100640000298FFF7D9FE0898FFF7B4FE0298FFF76B
:10065000D3FE0998FFF7AEFE0298FFF7CDFEFFE745
:10066000049801300490DDE7FFE70598013005901C
:100670009EE70120069007900890099000200590C1
:10068000FFE705980C2858DCFFE7059820B9FFE73D
:100690000698FFF78FFEFFE70520FFF7ADFE0598F0
:1006A000022807DBFFE706980790079840EA50000A
:1006B0000790FFE70598032807DBFFE707980890F6
:1006C000089840EA50000890FFE70598042807DBE7
:1006D000FFE708980990099840EA50000990FFE761
:1006E00000200490FFE704981D281EDCFFE709980E
:1006F000FFF760FE01200190FFF77EFE0898FFF7EC
:1007000059FE0198FFF778FE0798FFF753FE01980E
:10071000FFF772FE0698FFF74DFE0198FFF76CFE9B
:10072000FFE7049801300490DDE706A800F008F820
:10073000FFE7059801300590A3E70AB080BD0000EF
:1007400081B00090009908684000086001B07047CF
:1007500081B00090009908684008086001B07047B7
:10076000F1EE100A4FF6FF71C0F2C03120EA01002D
:1007700040F04070E1EE100A704700008C0700085E
:0C0780000000002068060000C401000812
:040000050800018965
:00000001FF
