:020000040800F2
:10000000600600200D020008490200084B020008AB
:100010004D0200084F0200085102000800000000D5
:100020000000000000000000000000005302000873
:10003000550200080000000057020008590200089D
:100040005B0200085B0200085B0200085B0200081C
:100050005B0200085B0200085B0200085B0200080C
:100060005B0200085B0200085B0200085B020008FC
:100070005B0200085B0200085B0200085B020008EC
:100080005B0200085B0200085B0200085B020008DC
:100090005B0200085B0200085B0200085B020008CC
:1000A0005B0200085B0200085B0200085B020008BC
:1000B0005B0200085B0200085B0200085B020008AC
:1000C0005B0200085B0200085B0200085B0200089C
:1000D0005B0200085B0200085B0200085B0200088C
:1000E0005B0200085B0200085B0200085B0200087C
:1000F0005B0200085B0200085B0200085B0200086C
:100100005B0200085B0200085B0200085B0200085B
:100110005B0200085B0200085B0200085B0200084B
:100120005B0200085B0200085B0200085B0200083B
:100130005B0200085B0200085B0200085B0200082B
:100140005B0200085B0200085B0200085B0200081B
:100150005B0200085B0200085B0200085B0200080B
:100160005B0200085B0200085B0200085B020008FB
:100170005B0200085B0200085B0200080000000050
:100180005B0200085B02000800F002F800F02EF8A5
:100190000AA090E8000C82448344AAF10107DA45E2
:1001A00001D100F023F8AFF2090EBAE80F0013F006
:1001B000010F18BFFB1A43F001031847E4020000C7
:1001C000F40200000023002400250026103A28BF76
:1001D00078C1FBD8520728BF30C148BF0B607047B9
:1001E0001FB500F04FF91FBD10B510BD00F053F85A
:1001F0001146FFF7F5FF00F089F800F071F803B43D
:10020000FFF7F2FF03BC00F079F800001648174929
:10021000174B99423CBF50F8042B41F8042BF8D3FC
:1002200014494FF000028B4238BF43F8042BFAD335
:10023000DFF84400016841F470010160BFF34F8FA3
:10024000BFF36F8F0D480047FEE7FEE7FEE7FEE7CE
:10025000FEE7FEE7FEE7FEE7FEE7FEE7084809499E
:10026000094A0A4B70470000B00400080000002053
:10027000000000206006002088ED00E089010008F1
:100280006000002060060020600200206002002064
:10029000704770477047754600F02CF8AE46050071
:1002A0006946534620F00700854618B020B5FFF791
:1002B000D5FFBDE820404FF000064FF000074FF09B
:1002C00000084FF0000BAC46ACE8C009ACE8C00930
:1002D000ACE8C009ACE8C00921F007018D467047C1
:1002E00010B50446AFF300802046BDE81040FFF78C
:1002F00086BF000000487047000000200149182018
:10030000ABBEFEE7260002007047000082B000206E
:10031000019041F20001C4F20201086840F48070CB
:100320000860FFE741F20000C4F2020000684005E7
:10033000002801D4FFE7F5E741F20801C4F2020109
:10034000086820F003000860086840F001000860B9
:10035000FFE741F20800C4F20200006810F00C0F41
:1003600001D1FFE7F5E741F24C01C4F20201086850
:1003700040F00200086040F20042C4F6000210683B
:1003800020F030001060106840F01000106040F263
:100390000442C4F60002106820F00400106040F22D
:1003A0000C42C4F60002106820F03000106040F2E9
:1003B0001442C4F60002106840F00400106008689F
:1003C00040F01000086041F20001C4F60001086826
:1003D00020F440300860086840F48030086041F242
:1003E0000401C4F60001086820F48070086041F23E
:1003F0000C01C4F60001086820F440300860FFE7F3
:100400000020009040F21442C4F60002116841F04E
:100410000401116041F21402C4F60002116841F4B3
:10042000807111600090FFE7009844F23F21C0F214
:100430000F01884205DCFFE7FFE7009801300090DC
:10044000F2E740F21441C4F60001086820F004000D
:10045000086041F21401C4F60001086820F48070BD
:10046000086000200090FFE7009844F23F21C0F2AE
:100470000F01884205DCFFE7FFE70098013000909C
:10048000F2E7BDE7F1EE100A4FF6FF71C0F2C0319E
:1004900020EA010040F04070E1EE100A70470000D1
:1004A000B00400080000002060060000C40100083D
:040000050800018965
:00000001FF
