:020000040800F2
:10000000680600200D020008490200084B020008A3
:100010004D0200084F0200085102000800000000D5
:100020000000000000000000000000005302000873
:100030005502000800000000570200086103000894
:100040005B0200085B0200085B0200085B0200081C
:100050005B0200085B0200085B0200085B0200080C
:100060005B0200085B0200085B0200085B020008FC
:100070005B0200085B0200085B0200085B020008EC
:100080005B0200085B0200085B0200085B020008DC
:100090005B0200085B0200085B0200085B020008CC
:1000A0005B0200085B0200085B0200085B020008BC
:1000B0005B0200085B0200085B0200085B020008AC
:1000C0005B0200085B0200085B0200085B0200089C
:1000D0005B0200085B0200085B0200085B0200088C
:1000E0005B0200085B0200085B0200085B0200087C
:1000F0005B0200085B0200085B0200085B0200086C
:100100005B0200085B0200085B0200085B0200085B
:100110005B0200085B0200085B0200085B0200084B
:100120005B0200085B0200085B0200085B0200083B
:100130005B0200085B0200085B0200085B0200082B
:100140005B0200085B0200085B0200085B0200081B
:100150005B0200085B0200085B0200085B0200080B
:100160005B0200085B0200085B0200085B020008FB
:100170005B0200085B0200085B0200080000000050
:100180005B0200085B02000800F002F800F02EF8A5
:100190000AA090E8000C82448344AAF10107DA45E2
:1001A00001D100F023F8AFF2090EBAE80F0013F006
:1001B000010F18BFFB1A43F001031847A405000004
:1001C000B40500000023002400250026103A28BFB3
:1001D00078C1FBD8520728BF30C148BF0B607047B9
:1001E0001FB500F09BFA1FBD10B510BD00F053F80D
:1001F0001146FFF7F5FF00F0E1F900F071F803B4E4
:10020000FFF7F2FF03BC00F079F800001648174929
:10021000174B99423CBF50F8042B41F8042BF8D3FC
:1002200014494FF000028B4238BF43F8042BFAD335
:10023000DFF84400016841F470010160BFF34F8FA3
:10024000BFF36F8F0D480047FEE7FEE7FEE7FEE7CE
:10025000FEE7FEE7FEE7FEE7FEE7FEE7084809499E
:10026000094A0A4B70470000700700080000002090
:10027000000000206806002088ED00E089010008E9
:100280006800002068060020680200206802002044
:10029000704770477047754600F02CF8AE46050071
:1002A0006946534620F00700854618B020B5FFF791
:1002B000D5FFBDE820404FF000064FF000074FF09B
:1002C00000084FF0000BAC46ACE8C009ACE8C00930
:1002D000ACE8C009ACE8C00921F007018D467047C1
:1002E00010B50446AFF300802046BDE81040FFF78C
:1002F00086BF000000487047000000200149182018
:10030000ABBEFEE7260002007047000080B582B059
:10031000009000980138B0F1807F03D3FFE70120FF
:10032000019019E0009801384EF21401CEF200015C
:1003300008604FF0FF300F2100F01AF84EF218015C
:10034000CEF20001002008604EF21002CEF2000250
:10035000072111600190FFE7019802B080BD000005
:1003600040F26001C2F20001086801300860704785
:1003700082B08DF8070000919DF9070000280AD48B
:10038000FFE7009800019DF907104EF20042CEF2FF
:10039000000288540BE0009800019DF8071001F05E
:1003A0000F014EF61452CEF200028854FFE702B05D
:1003B0007047000081B0009041F21401C4F60001C2
:1003C000086820F47C400860009A086840EA8220AF
:1003D000086041F61441C4F60001086820F00100ED
:1003E000086000990020B0EB911F09D0FFE741F6AB
:1003F0001441C4F60001086840F001000860FFE7FE
:1004000001B0704782B0019040F26000C2F200007B
:1004100000680090FFE740F26000C2F20000006850
:100420000099401A0199884201D2FFE7F3E702B030
:100430007047000081B041F24C01C4F2020108682B
:1004400040F001000860002000904FF090410868E3
:1004500020F0C0000860086820F4406008600C21AB
:10046000C4F60001086820F0C0000860086820F4A5
:1004700040600860086840F080000860086840F448
:100480000060086001B0704781B041F24C01C4F2D5
:100490000201086840F0100008600A2000900090F7
:1004A000FFE700980F282FDCFFE7009841000320AA
:1004B00000FA01F241F20003C4F600031968914307
:1004C000196000994A00012101FA02FC1A6842EA07
:1004D0000C021A60009A01FA02F341F20402C4F617
:1004E00000021168994311600099490000FA01F275
:1004F00041F20C01C4F60001086890430860FFE770
:10050000009801300090CCE701B0704781B041F213
:100510004C01C4F20201086840F08000086000202D
:10052000009000984100032000FA01F241F60043D8
:10053000C4F6000319689143196000994A0001212B
:1005400001FA02FC1A6842EA0C021A60009A01FAE7
:1005500002F341F60442C4F60002116899431160A7
:100560000099490000FA01F241F60C41C4F600017D
:1005700008689043086001B07047000082B0FFE750
:100580001020C4F60000006800909DF800000007ED
:10059000002803D5FFE7012001900BE09DF8000043
:1005A0008006002804D5FFE74FF0FF30019001E0FE
:1005B000FFE7E5E7019802B07047000010B590B082
:1005C00000200F9041F20001C4F20201086840F4DB
:1005D00080700860FFE741F20000C4F2020000688A
:1005E0004005002801D4FFE7F5E741F20801C4F215
:1005F0000201086820F003000860086840F001006C
:100600000860FFE741F20800C4F20200006810F041
:100610000C0F01D1FFE7F5E7FFF70CFFFFF734FF01
:10062000FFF774FF4FF47A50FFF770FE40F2387313
:10063000C0F600030193186859689A68D3F80CC093
:10064000D3F810E05C690A94CDF824E0CDF820C01E
:100650000792069105909869D9691A6A5B6A0E93A8
:100660000D920C910B900020049003900290FFE7F4
:10067000029830B9FFE70598FFF79CFE0120029031
:10068000FFE7FFF77BFF03900398013030B9FFE7E6
:10069000049818B9FFE70920049008E00398013096
:1006A00020B9FFE7049801380490FFE7FFE70398BB
:1006B000012807D1FFE70498092803D1FFE70020AC
:1006C000049008E00398012804D1FFE70498013062
:1006D0000490FFE7FFE7049905A850F82100FFF711
:1006E00069FEFFE71020C4F6000001680120090739
:1006F0000029009008D4FFE71020C4F6000000682D
:10070000C0F340100090FFE70098C00708B1FFE772
:10071000E8E74FF49670FFF775FEA9E7F1EE100ACF
:100720004FF6FF71C0F2C03120EA010040F0407086
:10073000E1EE100A704700003F00000006000000D4
:100740005B0000004F000000660000006D0000002C
:100750007D000000070000007F0000006F00000027
:10076000700700080000002068060000C4010008AF
:040000050800018965
:00000001FF
